{
  "contractName": "Elections",
  "abi": [
    {
      "inputs": [],
      "stateMutability": "nonpayable",
      "type": "constructor"
    },
    {
      "inputs": [],
      "name": "adminAddress",
      "outputs": [
        {
          "internalType": "address",
          "name": "",
          "type": "address"
        }
      ],
      "stateMutability": "view",
      "type": "function",
      "constant": true
    },
    {
      "inputs": [
        {
          "internalType": "uint256",
          "name": "",
          "type": "uint256"
        }
      ],
      "name": "ballots",
      "outputs": [
        {
          "internalType": "uint256",
          "name": "id",
          "type": "uint256"
        },
        {
          "internalType": "string",
          "name": "name",
          "type": "string"
        },
        {
          "internalType": "uint256",
          "name": "end",
          "type": "uint256"
        }
      ],
      "stateMutability": "view",
      "type": "function",
      "constant": true
    },
    {
      "inputs": [],
      "name": "nextBallot",
      "outputs": [
        {
          "internalType": "uint256",
          "name": "",
          "type": "uint256"
        }
      ],
      "stateMutability": "view",
      "type": "function",
      "constant": true
    },
    {
      "inputs": [
        {
          "internalType": "address",
          "name": "",
          "type": "address"
        }
      ],
      "name": "voters",
      "outputs": [
        {
          "internalType": "bool",
          "name": "",
          "type": "bool"
        }
      ],
      "stateMutability": "view",
      "type": "function",
      "constant": true
    },
    {
      "inputs": [
        {
          "internalType": "address",
          "name": "",
          "type": "address"
        },
        {
          "internalType": "uint256",
          "name": "",
          "type": "uint256"
        }
      ],
      "name": "votes",
      "outputs": [
        {
          "internalType": "bool",
          "name": "",
          "type": "bool"
        }
      ],
      "stateMutability": "view",
      "type": "function",
      "constant": true
    },
    {
      "inputs": [
        {
          "internalType": "address[]",
          "name": "voterAddresses",
          "type": "address[]"
        }
      ],
      "name": "addVoters",
      "outputs": [],
      "stateMutability": "nonpayable",
      "type": "function"
    },
    {
      "inputs": [
        {
          "internalType": "string",
          "name": "name",
          "type": "string"
        },
        {
          "internalType": "string[]",
          "name": "allChoices",
          "type": "string[]"
        },
        {
          "internalType": "uint256",
          "name": "offset",
          "type": "uint256"
        }
      ],
      "name": "createBallot",
      "outputs": [],
      "stateMutability": "nonpayable",
      "type": "function"
    },
    {
      "inputs": [
        {
          "internalType": "uint256",
          "name": "ballotId",
          "type": "uint256"
        },
        {
          "internalType": "uint256",
          "name": "choiceId",
          "type": "uint256"
        }
      ],
      "name": "vote",
      "outputs": [],
      "stateMutability": "nonpayable",
      "type": "function"
    },
    {
      "inputs": [
        {
          "internalType": "uint256",
          "name": "ballotId",
          "type": "uint256"
        }
      ],
      "name": "result",
      "outputs": [
        {
          "components": [
            {
              "internalType": "uint256",
              "name": "id",
              "type": "uint256"
            },
            {
              "internalType": "string",
              "name": "name",
              "type": "string"
            },
            {
              "internalType": "uint256",
              "name": "voteCount",
              "type": "uint256"
            }
          ],
          "internalType": "struct Elections.Choice[]",
          "name": "",
          "type": "tuple[]"
        }
      ],
      "stateMutability": "view",
      "type": "function",
      "constant": true
    },
    {
      "inputs": [
        {
          "internalType": "uint256",
          "name": "ballotId",
          "type": "uint256"
        }
      ],
      "name": "getBallotData",
      "outputs": [
        {
          "components": [
            {
              "internalType": "uint256",
              "name": "id",
              "type": "uint256"
            },
            {
              "internalType": "string",
              "name": "name",
              "type": "string"
            },
            {
              "components": [
                {
                  "internalType": "uint256",
                  "name": "id",
                  "type": "uint256"
                },
                {
                  "internalType": "string",
                  "name": "name",
                  "type": "string"
                },
                {
                  "internalType": "uint256",
                  "name": "voteCount",
                  "type": "uint256"
                }
              ],
              "internalType": "struct Elections.Choice[]",
              "name": "choices",
              "type": "tuple[]"
            },
            {
              "internalType": "uint256",
              "name": "end",
              "type": "uint256"
            }
          ],
          "internalType": "struct Elections.Ballot",
          "name": "",
          "type": "tuple"
        },
        {
          "components": [
            {
              "internalType": "uint256",
              "name": "id",
              "type": "uint256"
            },
            {
              "internalType": "string",
              "name": "name",
              "type": "string"
            },
            {
              "internalType": "uint256",
              "name": "voteCount",
              "type": "uint256"
            }
          ],
          "internalType": "struct Elections.Choice[]",
          "name": "",
          "type": "tuple[]"
        }
      ],
      "stateMutability": "view",
      "type": "function",
      "constant": true
    }
  ],
  "bytecode": "0x608060405234801561001057600080fd5b5033600360006101000a81548173ffffffffffffffffffffffffffffffffffffffff021916908373ffffffffffffffffffffffffffffffffffffffff160217905550611a83806100616000396000f3fe608060405234801561001057600080fd5b506004361061009e5760003560e01c80638203373a116100665780638203373a146101705780639f2524ee1461018c578063a3ec138d146101bc578063b384abef146101ec578063fc6f9468146102085761009e565b806320faae8e146100a35780633c594059146100bf57806359362a4f146100ef5780635c632b381461010d5780636e0f7cea1461013f575b600080fd5b6100bd60048036038101906100b89190611064565b610226565b005b6100d960048036038101906100d491906110ef565b610411565b6040516100e691906112c5565b60405180910390f35b6100f7610585565b60405161010491906112f6565b60405180910390f35b610127600480360381019061012291906110ef565b61058b565b6040516101369392919061135b565b60405180910390f35b610159600480360381019061015491906110ef565b61063d565b604051610167929190611489565b60405180910390f35b61018a6004803603810190610185919061151b565b610931565b005b6101a660048036038101906101a191906115c6565b610a65565b6040516101b39190611621565b60405180910390f35b6101d660048036038101906101d1919061163c565b610a94565b6040516101e39190611621565b60405180910390f35b61020660048036038101906102019190611669565b610ab4565b005b610210610cfd565b60405161021d91906116b8565b60405180910390f35b600360009054906101000a900473ffffffffffffffffffffffffffffffffffffffff1673ffffffffffffffffffffffffffffffffffffffff163373ffffffffffffffffffffffffffffffffffffffff16146102b6576040517f08c379a00000000000000000000000000000000000000000000000000000000081526004016102ad9061171f565b60405180910390fd5b60045460026000600454815260200190815260200160002060000181905550826002600060045481526020019081526020016000206001019080519060200190610301929190610d23565b50804261030e919061176e565b6002600060045481526020019081526020016000206003018190555060005b82518110156103f3576002600060045481526020019081526020016000206002016040518060600160405280838152602001858481518110610372576103716117c4565b5b60200260200101518152602001600081525090806001815401808255809150506001900390600052602060002090600302016000909190919091506000820151816000015560208201518160010190805190602001906103d3929190610d23565b5060408201518160020155505080806103eb906117f3565b91505061032d565b5060046000815480929190610407906117f3565b9190505550505050565b6060600260008381526020019081526020016000206003015442101561046c576040517f08c379a000000000000000000000000000000000000000000000000000000000815260040161046390611888565b60405180910390fd5b60026000838152602001908152602001600020600201805480602002602001604051908101604052809291908181526020016000905b8282101561057a5783829060005260206000209060030201604051806060016040529081600082015481526020016001820180546104df906118d7565b80601f016020809104026020016040519081016040528092919081815260200182805461050b906118d7565b80156105585780601f1061052d57610100808354040283529160200191610558565b820191906000526020600020905b81548152906001019060200180831161053b57829003601f168201915b50505050508152602001600282015481525050815260200190600101906104a2565b505050509050919050565b60045481565b60026020528060005260406000206000915090508060000154908060010180546105b4906118d7565b80601f01602080910402602001604051908101604052809291908181526020018280546105e0906118d7565b801561062d5780601f106106025761010080835404028352916020019161062d565b820191906000526020600020905b81548152906001019060200180831161061057829003601f168201915b5050505050908060030154905083565b610645610da9565b606060026000848152602001908152602001600020600260008581526020019081526020016000206002018160405180608001604052908160008201548152602001600182018054610696906118d7565b80601f01602080910402602001604051908101604052809291908181526020018280546106c2906118d7565b801561070f5780601f106106e45761010080835404028352916020019161070f565b820191906000526020600020905b8154815290600101906020018083116106f257829003601f168201915b5050505050815260200160028201805480602002602001604051908101604052809291908181526020016000905b8282101561081557838290600052602060002090600302016040518060600160405290816000820154815260200160018201805461077a906118d7565b80601f01602080910402602001604051908101604052809291908181526020018280546107a6906118d7565b80156107f35780601f106107c8576101008083540402835291602001916107f3565b820191906000526020600020905b8154815290600101906020018083116107d657829003601f168201915b505050505081526020016002820154815250508152602001906001019061073d565b505050508152602001600382015481525050915080805480602002602001604051908101604052809291908181526020016000905b82821015610922578382906000526020600020906003020160405180606001604052908160008201548152602001600182018054610887906118d7565b80601f01602080910402602001604051908101604052809291908181526020018280546108b3906118d7565b80156109005780601f106108d557610100808354040283529160200191610900565b820191906000526020600020905b8154815290600101906020018083116108e357829003601f168201915b505050505081526020016002820154815250508152602001906001019061084a565b50505050905091509150915091565b600360009054906101000a900473ffffffffffffffffffffffffffffffffffffffff1673ffffffffffffffffffffffffffffffffffffffff163373ffffffffffffffffffffffffffffffffffffffff16146109c1576040517f08c379a00000000000000000000000000000000000000000000000000000000081526004016109b89061171f565b60405180910390fd5b60005b82829050811015610a605760016000808585858181106109e7576109e66117c4565b5b90506020020160208101906109fc919061163c565b73ffffffffffffffffffffffffffffffffffffffff1673ffffffffffffffffffffffffffffffffffffffff16815260200190815260200160002060006101000a81548160ff0219169083151502179055508080610a58906117f3565b9150506109c4565b505050565b60016020528160005260406000206020528060005260406000206000915091509054906101000a900460ff1681565b60006020528060005260406000206000915054906101000a900460ff1681565b600115156000803373ffffffffffffffffffffffffffffffffffffffff1673ffffffffffffffffffffffffffffffffffffffff16815260200190815260200160002060009054906101000a900460ff16151514610b46576040517f08c379a0000000000000000000000000000000000000000000000000000000008152600401610b3d90611955565b60405180910390fd5b60001515600160003373ffffffffffffffffffffffffffffffffffffffff1673ffffffffffffffffffffffffffffffffffffffff168152602001908152602001600020600084815260200190815260200160002060009054906101000a900460ff16151514610bea576040517f08c379a0000000000000000000000000000000000000000000000000000000008152600401610be1906119c1565b60405180910390fd5b60026000838152602001908152602001600020600301544210610c42576040517f08c379a0000000000000000000000000000000000000000000000000000000008152600401610c3990611a2d565b60405180910390fd5b600260008381526020019081526020016000206002018181548110610c6a57610c696117c4565b5b90600052602060002090600302016002016000815480929190610c8c906117f3565b919050555060018060003373ffffffffffffffffffffffffffffffffffffffff1673ffffffffffffffffffffffffffffffffffffffff168152602001908152602001600020600084815260200190815260200160002060006101000a81548160ff0219169083151502179055505050565b600360009054906101000a900473ffffffffffffffffffffffffffffffffffffffff1681565b828054610d2f906118d7565b90600052602060002090601f016020900481019282610d515760008555610d98565b82601f10610d6a57805160ff1916838001178555610d98565b82800160010185558215610d98579182015b82811115610d97578251825591602001919060010190610d7c565b5b509050610da59190610dd1565b5090565b6040518060800160405280600081526020016060815260200160608152602001600081525090565b5b80821115610dea576000816000905550600101610dd2565b5090565b6000604051905090565b600080fd5b600080fd5b600080fd5b600080fd5b6000601f19601f8301169050919050565b7f4e487b7100000000000000000000000000000000000000000000000000000000600052604160045260246000fd5b610e5582610e0c565b810181811067ffffffffffffffff82111715610e7457610e73610e1d565b5b80604052505050565b6000610e87610dee565b9050610e938282610e4c565b919050565b600067ffffffffffffffff821115610eb357610eb2610e1d565b5b610ebc82610e0c565b9050602081019050919050565b82818337600083830152505050565b6000610eeb610ee684610e98565b610e7d565b905082815260208101848484011115610f0757610f06610e07565b5b610f12848285610ec9565b509392505050565b600082601f830112610f2f57610f2e610e02565b5b8135610f3f848260208601610ed8565b91505092915050565b600067ffffffffffffffff821115610f6357610f62610e1d565b5b602082029050602081019050919050565b600080fd5b6000610f8c610f8784610f48565b610e7d565b90508083825260208201905060208402830185811115610faf57610fae610f74565b5b835b81811015610ff657803567ffffffffffffffff811115610fd457610fd3610e02565b5b808601610fe18982610f1a565b85526020850194505050602081019050610fb1565b5050509392505050565b600082601f83011261101557611014610e02565b5b8135611025848260208601610f79565b91505092915050565b6000819050919050565b6110418161102e565b811461104c57600080fd5b50565b60008135905061105e81611038565b92915050565b60008060006060848603121561107d5761107c610df8565b5b600084013567ffffffffffffffff81111561109b5761109a610dfd565b5b6110a786828701610f1a565b935050602084013567ffffffffffffffff8111156110c8576110c7610dfd565b5b6110d486828701611000565b92505060406110e58682870161104f565b9150509250925092565b60006020828403121561110557611104610df8565b5b60006111138482850161104f565b91505092915050565b600081519050919050565b600082825260208201905092915050565b6000819050602082019050919050565b6111518161102e565b82525050565b600081519050919050565b600082825260208201905092915050565b60005b83811015611191578082015181840152602081019050611176565b838111156111a0576000848401525b50505050565b60006111b182611157565b6111bb8185611162565b93506111cb818560208601611173565b6111d481610e0c565b840191505092915050565b60006060830160008301516111f76000860182611148565b506020830151848203602086015261120f82826111a6565b91505060408301516112246040860182611148565b508091505092915050565b600061123b83836111df565b905092915050565b6000602082019050919050565b600061125b8261111c565b6112658185611127565b93508360208202850161127785611138565b8060005b858110156112b35784840389528151611294858261122f565b945061129f83611243565b925060208a0199505060018101905061127b565b50829750879550505050505092915050565b600060208201905081810360008301526112df8184611250565b905092915050565b6112f08161102e565b82525050565b600060208201905061130b60008301846112e7565b92915050565b600082825260208201905092915050565b600061132d82611157565b6113378185611311565b9350611347818560208601611173565b61135081610e0c565b840191505092915050565b600060608201905061137060008301866112e7565b81810360208301526113828185611322565b905061139160408301846112e7565b949350505050565b600082825260208201905092915050565b60006113b58261111c565b6113bf8185611399565b9350836020820285016113d185611138565b8060005b8581101561140d57848403895281516113ee858261122f565b94506113f983611243565b925060208a019950506001810190506113d5565b50829750879550505050505092915050565b60006080830160008301516114376000860182611148565b506020830151848203602086015261144f82826111a6565b9150506040830151848203604086015261146982826113aa565b915050606083015161147e6060860182611148565b508091505092915050565b600060408201905081810360008301526114a3818561141f565b905081810360208301526114b78184611250565b90509392505050565b600080fd5b60008083601f8401126114db576114da610e02565b5b8235905067ffffffffffffffff8111156114f8576114f76114c0565b5b60208301915083602082028301111561151457611513610f74565b5b9250929050565b6000806020838503121561153257611531610df8565b5b600083013567ffffffffffffffff8111156115505761154f610dfd565b5b61155c858286016114c5565b92509250509250929050565b600073ffffffffffffffffffffffffffffffffffffffff82169050919050565b600061159382611568565b9050919050565b6115a381611588565b81146115ae57600080fd5b50565b6000813590506115c08161159a565b92915050565b600080604083850312156115dd576115dc610df8565b5b60006115eb858286016115b1565b92505060206115fc8582860161104f565b9150509250929050565b60008115159050919050565b61161b81611606565b82525050565b60006020820190506116366000830184611612565b92915050565b60006020828403121561165257611651610df8565b5b6000611660848285016115b1565b91505092915050565b600080604083850312156116805761167f610df8565b5b600061168e8582860161104f565b925050602061169f8582860161104f565b9150509250929050565b6116b281611588565b82525050565b60006020820190506116cd60008301846116a9565b92915050565b7f6f6e6c792061646d696e20616374696f6e000000000000000000000000000000600082015250565b6000611709601183611311565b9150611714826116d3565b602082019050919050565b60006020820190508181036000830152611738816116fc565b9050919050565b7f4e487b7100000000000000000000000000000000000000000000000000000000600052601160045260246000fd5b60006117798261102e565b91506117848361102e565b9250827fffffffffffffffffffffffffffffffffffffffffffffffffffffffffffffffff038211156117b9576117b861173f565b5b828201905092915050565b7f4e487b7100000000000000000000000000000000000000000000000000000000600052603260045260246000fd5b60006117fe8261102e565b91507fffffffffffffffffffffffffffffffffffffffffffffffffffffffffffffffff8214156118315761183061173f565b5b600182019050919050565b7f62616c6c6f74206973206e6f74206f7665722079657400000000000000000000600082015250565b6000611872601683611311565b915061187d8261183c565b602082019050919050565b600060208201905081810360008301526118a181611865565b9050919050565b7f4e487b7100000000000000000000000000000000000000000000000000000000600052602260045260246000fd5b600060028204905060018216806118ef57607f821691505b60208210811415611903576119026118a8565b5b50919050565b7f61646472657373206973206e6f74206f6e20766f746572206c69737400000000600082015250565b600061193f601c83611311565b915061194a82611909565b602082019050919050565b6000602082019050818103600083015261196e81611932565b9050919050565b7f766f7465722063616e20766f7465206f6e6c79206f6e63650000000000000000600082015250565b60006119ab601883611311565b91506119b682611975565b602082019050919050565b600060208201905081810360008301526119da8161199e565b9050919050565b7f62616c6c6f7420766f74696e672068617320616c726561647920656e64656400600082015250565b6000611a17601f83611311565b9150611a22826119e1565b602082019050919050565b60006020820190508181036000830152611a4681611a0a565b905091905056fea2646970667358221220587c29ea01a3af85540b7c5efce49720ea3d97a2214f914372c82bb89604d6db64736f6c634300080b0033",
  "immutableReferences": {},
  "source": "// SPDX-License-Identifier: MIT\npragma solidity >=0.4.22 <0.9.0;\n\ncontract Elections {\n  struct Choice {\n    uint id;\n    string name;\n    uint voteCount;\n  }\n  struct Ballot {\n    uint id;\n    string name;\n    Choice[] choices;\n    uint end;\n  }\n  mapping(address => bool) public voters;\n  mapping(address => mapping(uint => bool)) public votes;\n  mapping(uint => Ballot) public ballots;\n  address public adminAddress;\n  uint public nextBallot;\n\n  constructor() {\n    adminAddress = msg.sender;\n  }\n\n  function addVoters(address[] calldata voterAddresses) external onlyAdmin {\n    for(uint i = 0; i < voterAddresses.length; i++) {\n      voters[voterAddresses[i]] = true;\n    }\n  }\n\n  function createBallot(string memory name, string[] memory allChoices, uint offset) external onlyAdmin {\n    ballots[nextBallot].id = nextBallot;\n    ballots[nextBallot].name = name;\n    ballots[nextBallot].end = block.timestamp + offset;\n    for(uint i = 0; i < allChoices.length; i++) {\n      ballots[nextBallot].choices.push(Choice(i, allChoices[i],0));\n    }\n    nextBallot++;\n  }\n\n  function vote(uint ballotId, uint choiceId) external {\n    require(voters[msg.sender] == true, 'address is not on voter list');\n    require(votes[msg.sender][ballotId] == false, 'voter can vote only once');\n    require(block.timestamp < ballots[ballotId].end , 'ballot voting has already ended');\n    ballots[ballotId].choices[choiceId].voteCount++;\n    votes[msg.sender][ballotId] = true;\n  }\n\n  function result(uint ballotId) view external returns(Choice[] memory) {\n    require(block.timestamp >= ballots[ballotId].end, 'ballot is not over yet');\n    return ballots[ballotId].choices;\n  }\n\n  function getBallotData(uint ballotId) view external returns(Ballot memory, Choice[] memory) {\n    return (ballots[ballotId], ballots[ballotId].choices);\n  }\n\n  modifier onlyAdmin() {\n    require(msg.sender == adminAddress, 'only admin action');\n    _;\n  }\n}\n",
  "sourcePath": "/var/www/html/dapp30/blockchain-voting/contracts/Elections.sol",
  "compiler": {
    "name": "solc",
    "version": "0.8.11+commit.d7f03943.Emscripten.clang"
  },
  "schemaVersion": "3.4.4",
  "updatedAt": "2022-05-27T13:29:55.530Z",
  "networkType": "ethereum",
  "devdoc": {
    "kind": "dev",
    "methods": {},
    "version": 1
  },
  "userdoc": {
    "kind": "user",
    "methods": {},
    "version": 1
  }
}