{
  "contractName": "Elections",
  "abi": [
    {
      "inputs": [],
      "stateMutability": "nonpayable",
      "type": "constructor"
    },
    {
      "inputs": [],
      "name": "adminAddress",
      "outputs": [
        {
          "internalType": "address",
          "name": "",
          "type": "address"
        }
      ],
      "stateMutability": "view",
      "type": "function",
      "constant": true
    },
    {
      "inputs": [
        {
          "internalType": "address",
          "name": "",
          "type": "address"
        }
      ],
      "name": "voters",
      "outputs": [
        {
          "internalType": "bool",
          "name": "",
          "type": "bool"
        }
      ],
      "stateMutability": "view",
      "type": "function",
      "constant": true
    },
    {
      "inputs": [
        {
          "internalType": "address[]",
          "name": "voterAddresses",
          "type": "address[]"
        }
      ],
      "name": "addVoters",
      "outputs": [],
      "stateMutability": "nonpayable",
      "type": "function"
    },
    {
      "inputs": [
        {
          "internalType": "string",
          "name": "name",
          "type": "string"
        },
        {
          "internalType": "string[]",
          "name": "allChoices",
          "type": "string[]"
        },
        {
          "internalType": "uint256",
          "name": "offset",
          "type": "uint256"
        }
      ],
      "name": "createBallot",
      "outputs": [],
      "stateMutability": "nonpayable",
      "type": "function"
    },
    {
      "inputs": [
        {
          "internalType": "uint256",
          "name": "ballotId",
          "type": "uint256"
        },
        {
          "internalType": "uint256",
          "name": "choiceId",
          "type": "uint256"
        }
      ],
      "name": "vote",
      "outputs": [],
      "stateMutability": "nonpayable",
      "type": "function"
    },
    {
      "inputs": [
        {
          "internalType": "uint256",
          "name": "ballotId",
          "type": "uint256"
        }
      ],
      "name": "result",
      "outputs": [
        {
          "components": [
            {
              "internalType": "uint256",
              "name": "id",
              "type": "uint256"
            },
            {
              "internalType": "string",
              "name": "name",
              "type": "string"
            },
            {
              "internalType": "uint256",
              "name": "voteCount",
              "type": "uint256"
            }
          ],
          "internalType": "struct Elections.Choice[]",
          "name": "",
          "type": "tuple[]"
        }
      ],
      "stateMutability": "view",
      "type": "function",
      "constant": true
    }
  ],
  "bytecode": "0x608060405234801561001057600080fd5b5033600360006101000a81548173ffffffffffffffffffffffffffffffffffffffff021916908373ffffffffffffffffffffffffffffffffffffffff16021790555061138b806100616000396000f3fe608060405234801561001057600080fd5b50600436106100625760003560e01c806320faae8e146100675780633c594059146100835780638203373a146100b3578063a3ec138d146100cf578063b384abef146100ff578063fc6f94681461011b575b600080fd5b610081600480360381019061007c9190610b74565b610139565b005b61009d60048036038101906100989190610bff565b610324565b6040516100aa9190610dd5565b60405180910390f35b6100cd60048036038101906100c89190610e52565b610498565b005b6100e960048036038101906100e49190610efd565b6105cc565b6040516100f69190610f45565b60405180910390f35b61011960048036038101906101149190610f60565b6105ec565b005b610123610835565b6040516101309190610faf565b60405180910390f35b600360009054906101000a900473ffffffffffffffffffffffffffffffffffffffff1673ffffffffffffffffffffffffffffffffffffffff163373ffffffffffffffffffffffffffffffffffffffff16146101c9576040517f08c379a00000000000000000000000000000000000000000000000000000000081526004016101c090611027565b60405180910390fd5b6004546002600060045481526020019081526020016000206000018190555082600260006004548152602001908152602001600020600101908051906020019061021492919061085b565b5080426102219190611076565b6002600060045481526020019081526020016000206003018190555060005b8251811015610306576002600060045481526020019081526020016000206002016040518060600160405280838152602001858481518110610285576102846110cc565b5b60200260200101518152602001600081525090806001815401808255809150506001900390600052602060002090600302016000909190919091506000820151816000015560208201518160010190805190602001906102e692919061085b565b5060408201518160020155505080806102fe906110fb565b915050610240565b506004600081548092919061031a906110fb565b9190505550505050565b6060600260008381526020019081526020016000206003015442101561037f576040517f08c379a000000000000000000000000000000000000000000000000000000000815260040161037690611190565b60405180910390fd5b60026000838152602001908152602001600020600201805480602002602001604051908101604052809291908181526020016000905b8282101561048d5783829060005260206000209060030201604051806060016040529081600082015481526020016001820180546103f2906111df565b80601f016020809104026020016040519081016040528092919081815260200182805461041e906111df565b801561046b5780601f106104405761010080835404028352916020019161046b565b820191906000526020600020905b81548152906001019060200180831161044e57829003601f168201915b50505050508152602001600282015481525050815260200190600101906103b5565b505050509050919050565b600360009054906101000a900473ffffffffffffffffffffffffffffffffffffffff1673ffffffffffffffffffffffffffffffffffffffff163373ffffffffffffffffffffffffffffffffffffffff1614610528576040517f08c379a000000000000000000000000000000000000000000000000000000000815260040161051f90611027565b60405180910390fd5b60005b828290508110156105c757600160008085858581811061054e5761054d6110cc565b5b90506020020160208101906105639190610efd565b73ffffffffffffffffffffffffffffffffffffffff1673ffffffffffffffffffffffffffffffffffffffff16815260200190815260200160002060006101000a81548160ff02191690831515021790555080806105bf906110fb565b91505061052b565b505050565b60006020528060005260406000206000915054906101000a900460ff1681565b600115156000803373ffffffffffffffffffffffffffffffffffffffff1673ffffffffffffffffffffffffffffffffffffffff16815260200190815260200160002060009054906101000a900460ff1615151461067e576040517f08c379a00000000000000000000000000000000000000000000000000000000081526004016106759061125d565b60405180910390fd5b60011515600160003373ffffffffffffffffffffffffffffffffffffffff1673ffffffffffffffffffffffffffffffffffffffff168152602001908152602001600020600084815260200190815260200160002060009054906101000a900460ff16151514610722576040517f08c379a0000000000000000000000000000000000000000000000000000000008152600401610719906112c9565b60405180910390fd5b6002600083815260200190815260200160002060030154421061077a576040517f08c379a000000000000000000000000000000000000000000000000000000000815260040161077190611335565b60405180910390fd5b6002600083815260200190815260200160002060020181815481106107a2576107a16110cc565b5b906000526020600020906003020160020160008154809291906107c4906110fb565b919050555060018060003373ffffffffffffffffffffffffffffffffffffffff1673ffffffffffffffffffffffffffffffffffffffff168152602001908152602001600020600084815260200190815260200160002060006101000a81548160ff0219169083151502179055505050565b600360009054906101000a900473ffffffffffffffffffffffffffffffffffffffff1681565b828054610867906111df565b90600052602060002090601f01602090048101928261088957600085556108d0565b82601f106108a257805160ff19168380011785556108d0565b828001600101855582156108d0579182015b828111156108cf5782518255916020019190600101906108b4565b5b5090506108dd91906108e1565b5090565b5b808211156108fa5760008160009055506001016108e2565b5090565b6000604051905090565b600080fd5b600080fd5b600080fd5b600080fd5b6000601f19601f8301169050919050565b7f4e487b7100000000000000000000000000000000000000000000000000000000600052604160045260246000fd5b6109658261091c565b810181811067ffffffffffffffff821117156109845761098361092d565b5b80604052505050565b60006109976108fe565b90506109a3828261095c565b919050565b600067ffffffffffffffff8211156109c3576109c261092d565b5b6109cc8261091c565b9050602081019050919050565b82818337600083830152505050565b60006109fb6109f6846109a8565b61098d565b905082815260208101848484011115610a1757610a16610917565b5b610a228482856109d9565b509392505050565b600082601f830112610a3f57610a3e610912565b5b8135610a4f8482602086016109e8565b91505092915050565b600067ffffffffffffffff821115610a7357610a7261092d565b5b602082029050602081019050919050565b600080fd5b6000610a9c610a9784610a58565b61098d565b90508083825260208201905060208402830185811115610abf57610abe610a84565b5b835b81811015610b0657803567ffffffffffffffff811115610ae457610ae3610912565b5b808601610af18982610a2a565b85526020850194505050602081019050610ac1565b5050509392505050565b600082601f830112610b2557610b24610912565b5b8135610b35848260208601610a89565b91505092915050565b6000819050919050565b610b5181610b3e565b8114610b5c57600080fd5b50565b600081359050610b6e81610b48565b92915050565b600080600060608486031215610b8d57610b8c610908565b5b600084013567ffffffffffffffff811115610bab57610baa61090d565b5b610bb786828701610a2a565b935050602084013567ffffffffffffffff811115610bd857610bd761090d565b5b610be486828701610b10565b9250506040610bf586828701610b5f565b9150509250925092565b600060208284031215610c1557610c14610908565b5b6000610c2384828501610b5f565b91505092915050565b600081519050919050565b600082825260208201905092915050565b6000819050602082019050919050565b610c6181610b3e565b82525050565b600081519050919050565b600082825260208201905092915050565b60005b83811015610ca1578082015181840152602081019050610c86565b83811115610cb0576000848401525b50505050565b6000610cc182610c67565b610ccb8185610c72565b9350610cdb818560208601610c83565b610ce48161091c565b840191505092915050565b6000606083016000830151610d076000860182610c58565b5060208301518482036020860152610d1f8282610cb6565b9150506040830151610d346040860182610c58565b508091505092915050565b6000610d4b8383610cef565b905092915050565b6000602082019050919050565b6000610d6b82610c2c565b610d758185610c37565b935083602082028501610d8785610c48565b8060005b85811015610dc35784840389528151610da48582610d3f565b9450610daf83610d53565b925060208a01995050600181019050610d8b565b50829750879550505050505092915050565b60006020820190508181036000830152610def8184610d60565b905092915050565b600080fd5b60008083601f840112610e1257610e11610912565b5b8235905067ffffffffffffffff811115610e2f57610e2e610df7565b5b602083019150836020820283011115610e4b57610e4a610a84565b5b9250929050565b60008060208385031215610e6957610e68610908565b5b600083013567ffffffffffffffff811115610e8757610e8661090d565b5b610e9385828601610dfc565b92509250509250929050565b600073ffffffffffffffffffffffffffffffffffffffff82169050919050565b6000610eca82610e9f565b9050919050565b610eda81610ebf565b8114610ee557600080fd5b50565b600081359050610ef781610ed1565b92915050565b600060208284031215610f1357610f12610908565b5b6000610f2184828501610ee8565b91505092915050565b60008115159050919050565b610f3f81610f2a565b82525050565b6000602082019050610f5a6000830184610f36565b92915050565b60008060408385031215610f7757610f76610908565b5b6000610f8585828601610b5f565b9250506020610f9685828601610b5f565b9150509250929050565b610fa981610ebf565b82525050565b6000602082019050610fc46000830184610fa0565b92915050565b600082825260208201905092915050565b7f6f6e6c792061646d696e20616374696f6e000000000000000000000000000000600082015250565b6000611011601183610fca565b915061101c82610fdb565b602082019050919050565b6000602082019050818103600083015261104081611004565b9050919050565b7f4e487b7100000000000000000000000000000000000000000000000000000000600052601160045260246000fd5b600061108182610b3e565b915061108c83610b3e565b9250827fffffffffffffffffffffffffffffffffffffffffffffffffffffffffffffffff038211156110c1576110c0611047565b5b828201905092915050565b7f4e487b7100000000000000000000000000000000000000000000000000000000600052603260045260246000fd5b600061110682610b3e565b91507fffffffffffffffffffffffffffffffffffffffffffffffffffffffffffffffff82141561113957611138611047565b5b600182019050919050565b7f62616c6c6f74206973206e6f74206f7665722079657400000000000000000000600082015250565b600061117a601683610fca565b915061118582611144565b602082019050919050565b600060208201905081810360008301526111a98161116d565b9050919050565b7f4e487b7100000000000000000000000000000000000000000000000000000000600052602260045260246000fd5b600060028204905060018216806111f757607f821691505b6020821081141561120b5761120a6111b0565b5b50919050565b7f61646472657373206973206e6f74206f6e20766f746572206c69737400000000600082015250565b6000611247601c83610fca565b915061125282611211565b602082019050919050565b600060208201905081810360008301526112768161123a565b9050919050565b7f766f7465722063616e20766f7465206f6e6c79206f6e63650000000000000000600082015250565b60006112b3601883610fca565b91506112be8261127d565b602082019050919050565b600060208201905081810360008301526112e2816112a6565b9050919050565b7f62616c6c6f7420766f74696e672068617320616c726561647920656e64656400600082015250565b600061131f601f83610fca565b915061132a826112e9565b602082019050919050565b6000602082019050818103600083015261134e81611312565b905091905056fea264697066735822122037ac1bfd923058f7843a9299a9db9f1207e4829562ce9051ef8b6e51090dc42c64736f6c634300080b0033",
  "immutableReferences": {},
  "source": "// SPDX-License-Identifier: MIT\npragma solidity >=0.4.22 <0.9.0;\n\ncontract Elections {\n  struct Choice {\n    uint id;\n    string name;\n    uint voteCount;\n  }\n  struct Ballot {\n    uint id;\n    string name;\n    Choice[] choices;\n    uint end;\n  }\n  mapping(address => bool) public voters;\n  mapping(address => mapping(uint => bool)) votes;\n  mapping(uint => Ballot) ballots;\n  address public adminAddress;\n  uint nextBallot;\n\n  constructor() {\n    adminAddress = msg.sender;\n  }\n\n  function addVoters(address[] calldata voterAddresses) external onlyAdmin {\n    for(uint i = 0; i < voterAddresses.length; i++) {\n      voters[voterAddresses[i]] = true;\n    }\n  }\n\n  function createBallot(string memory name, string[] memory allChoices, uint offset) external onlyAdmin {\n    ballots[nextBallot].id = nextBallot;\n    ballots[nextBallot].name = name;\n    ballots[nextBallot].end = block.timestamp + offset;\n    for(uint i = 0; i < allChoices.length; i++) {\n      ballots[nextBallot].choices.push(Choice(i, allChoices[i],0));\n    }\n    nextBallot++;\n  }\n\n  function vote(uint ballotId, uint choiceId) external {\n    require(voters[msg.sender] == true, 'address is not on voter list');\n    require(votes[msg.sender][ballotId] == true, 'voter can vote only once');\n    require(block.timestamp < ballots[ballotId].end , 'ballot voting has already ended');\n    ballots[ballotId].choices[choiceId].voteCount++;\n    votes[msg.sender][ballotId] = true;\n  }\n\n  function result(uint ballotId) view external returns(Choice[] memory) {\n    require(block.timestamp >= ballots[ballotId].end, 'ballot is not over yet');\n    return ballots[ballotId].choices;\n  }\n\n  modifier onlyAdmin() {\n    require(msg.sender == adminAddress, 'only admin action');\n    _;\n  }\n}\n",
  "sourcePath": "/var/www/html/dapp30/blockchain-voting/contracts/Elections.sol",
  "compiler": {
    "name": "solc",
    "version": "0.8.11+commit.d7f03943.Emscripten.clang"
  },
  "schemaVersion": "3.4.4",
  "updatedAt": "2022-05-26T11:37:59.911Z",
  "networkType": "ethereum",
  "devdoc": {
    "kind": "dev",
    "methods": {},
    "version": 1
  },
  "userdoc": {
    "kind": "user",
    "methods": {},
    "version": 1
  }
}